root@comp3134:~# tcpdump -XX -i eth0

tcpdump: verbose output suppressed, use -v or -vv for full protocol decode
listening on eth0, link-type EN10MB (Ethernet), capture size 262144 bytes
20:35:32.589651 IP 165.22.235.9.ssh > 76.71.137.116.50972: Flags [P.], seq 3906705703:3906705811, ack 2104288808, win 501, length 108
        0x0000:  fe00 0000 0101 2aaf 7268 717c 0800 4510  ......*.rhq|..E.
        0x0010:  0094 c7ca 4000 4006 0cae a516 eb09 4c47  ....@.@.......LG
        0x0020:  8974 0016 c71c e8db 9927 7d6c e628 5018  .t.......'}l.(P.
        0x0030:  01f5 6662 0000 3be3 6616 c359 c7c1 1991  ..fb..;.f..Y....
        0x0040:  72c9 785d 2b2f f848 ec8c 629f fdd4 6ea5  r.x]+/.H..b...n.
        0x0050:  127c e7cd f6da b8d1 a528 fd98 8191 8b0c  .|.......(......
        0x0060:  10e9 70db 3b9c 4ac4 aa4f f367 f032 d269  ..p.;.J..O.g.2.i
        0x0070:  c4fe 44a4 2755 6d09 37bf 94a0 ddfc 81a6  ..D.'Um.7.......
        0x0080:  5b69 217d a200 2a53 ae46 4aa0 a144 42f6  [i!}..*S.FJ..DB.
        0x0090:  c154 dd34 54d0 921f 4713 291a 1c13 bff5  .T.4T...G.).....
        0x00a0:  27dd                                     '.
20:35:32.589742 IP 165.22.235.9.ssh > 76.71.137.116.50972: Flags [P.], seq 108:144, ack 1, win 501, length 36
        0x0000:  fe00 0000 0101 2aaf 7268 717c 0800 4510  ......*.rhq|..E.
        0x0010:  004c c7cb 4000 4006 0cf5 a516 eb09 4c47  .L..@.@.......LG
        0x0020:  8974 0016 c71c e8db 9993 7d6c e628 5018  .t........}l.(P.
        0x0030:  01f5 661a 0000 ad94 54ce 4630 dbb2 becf  ..f.....T.F0....
        0x0040:  086e 6a2d 6866 4997 84ab 3c31 2359 382e  .nj-hfI...<1#Y8.
        0x0050:  5115 a8cb b3aa 6200 b537                 Q.....b..7
20:35:32.589831 IP 165.22.235.9.ssh > 76.71.137.116.50972: Flags [P.], seq 144:252, ack 1, win 501, length 108
        0x0000:  fe00 0000 0101 2aaf 7268 717c 0800 4510  ......*.rhq|..E.
        0x0010:  0094 c7cc 4000 4006 0cac a516 eb09 4c47  ....@.@.......LG
        0x0020:  8974 0016 c71c e8db 99b7 7d6c e628 5018  .t........}l.(P.
        0x0030:  01f5 6662 0000 3206 baed bf4b 67a2 b5d7  ..fb..2....Kg...
        0x0040:  1dc9 db13 d103 aa3b e674 3441 8617 9041  .......;.t4A...A
        0x0050:  f0e1 6063 b6dd 5ae8 1152 822c b761 692b  ..`c..Z..R.,.ai+
        0x0060:  5155 0e86 f19f 7d62 689c 0797 bbe6 2e1a  QU....}bh.......
        0x0070:  5199 5c26 eaed f943 7ac4 8c0a b0fe 19f5  Q.\&...Cz.......
        0x0080:  3f5a 5e6d 51fa d4fa 8f37 3c2e 98cc 99cc  ?Z^mQ....7<.....
        0x0090:  6714 a4b5 3369 96dc af18 ddd6 ca1c e0c3  g...3i..........
        0x00a0:  cfcc                                     ..
20:35:32.589896 IP 165.22.235.9.ssh > 76.71.137.116.50972: Flags [P.], seq 252:288, ack 1, win 501, length 36
        0x0000:  fe00 0000 0101 2aaf 7268 717c 0800 4510  ......*.rhq|..E.
        0x0010:  004c c7cd 4000 4006 0cf3 a516 eb09 4c47  .L..@.@.......LG
        0x0020:  8974 0016 c71c e8db 9a23 7d6c e628 5018  .t.......#}l.(P.
        0x0030:  01f5 661a 0000 f2bf 7ba0 d9eb 69a1 1152  ..f.....{...i..R
        0x0040:  cb03 210a 50da 0f64 d613 a948 0333 6555  ..!.P..d...H.3eU
        0x0050:  8bce c8b3 2c2f 3ecc 2101                 ....,/>.!.
20:35:32.590455 IP 165.22.235.9.50532 > 8.8.8.8.domain: 20052+ PTR? 116.137.71.76.in-addr.arpa. (44)
        0x0000:  fe00 0000 0101 2aaf 7268 717c 0800 4500  ......*.rhq|..E.
        0x0010:  0048 9085 4000 4011 09f0 a516 eb09 0808  .H..@.@.........
        0x0020:  0808 c564 0035 0034 a075 4e54 0100 0001  ...d.5.4.uNT....
        0x0030:  0000 0000 0000 0331 3136 0331 3337 0237  .......116.137.7
        0x0040:  3102 3736 0769 6e2d 6164 6472 0461 7270  1.76.in-addr.arp
        0x0050:  6100 000c 0001                           a.....
20:35:32.590501 IP 76.71.137.116.50972 > 165.22.235.9.ssh: Flags [.], ack 108, win 1024, length 0
        0x0000:  2aaf 7268 717c fe00 0000 0101 0800 4500  *.rhq|........E.
        0x0010:  0028 ecb9 4000 7606 b23a 4c47 8974 a516  .(..@.v..:LG.t..
        0x0020:  eb09 c71c 0016 7d6c e628 e8db 9993 5010  ......}l.(....P.
        0x0030:  0400 98c1 0000 0000 0000 0000            ............
20:35:32.590815 IP 76.71.137.116.50972 > 165.22.235.9.ssh: Flags [.], ack 252, win 1024, length 0
        0x0000:  2aaf 7268 717c fe00 0000 0101 0800 4500  *.rhq|........E.
        0x0010:  0028 ecba 4000 7606 b239 4c47 8974 a516  .(..@.v..9LG.t..
        0x0020:  eb09 c71c 0016 7d6c e628 e8db 9a23 5010  ......}l.(...#P.
        0x0030:  0400 9831 0000 0000 0000 0000            ...1........
20:35:32.600085 IP 8.8.8.8.domain > 165.22.235.9.50532: 20052 1/0/0 PTR bras-base-toroon0259w-grc-04-76-71-137-116.dsl.bell.ca. (112)
        0x0000:  2aaf 7268 717c fe00 0000 0101 0800 4500  *.rhq|........E.
        0x0010:  008c bfc5 0000 7c11 de6b 0808 0808 a516  ......|..k......
        0x0020:  eb09 0035 c564 0078 9732 4e54 8180 0001  ...5.d.x.2NT....
        0x0030:  0001 0000 0000 0331 3136 0331 3337 0237  .......116.137.7
        0x0040:  3102 3736 0769 6e2d 6164 6472 0461 7270  1.76.in-addr.arp
        0x0050:  6100 000c 0001 c00c 000c 0001 0000 545f  a.............T_
        0x0060:  0038 2a62 7261 732d 6261 7365 2d74 6f72  .8*bras-base-tor
        0x0070:  6f6f 6e30 3235 3977 2d67 7263 2d30 342d  oon0259w-grc-04-
        0x0080:  3736 2d37 312d 3133 372d 3131 3603 6473  76-71-137-116.ds
        0x0090:  6c04 6265 6c6c 0263 6100                 l.bell.ca.
^C
20:35:32.616084 IP 164.114.46.243.57625 > 165.22.235.9.http: Flags [S], seq 273617549, win 49954, length 0
        0x0000:  2aaf 7268 717c fe00 0000 0101 0800 4500  *.rhq|........E.
        0x0010:  0028 8078 0000 d006 06d2 a472 2ef3 a516  .(.x.......r....
        0x0020:  eb09 e119 0050 104f 128d 0000 0000 5002  .....P.O......P.
        0x0030:  c322 84f4 0000 0000 0000 0000            ."..........

9 packets captured
167 packets received by filter
126 packets dropped by kernel